:020000040800F2
:100000006049002045010008950F0008970F00087F
:100010009B0F00089F0F0008A30F000800000000BE
:10002000000000000000000000000000A70F000812
:10003000A90F000800000000AB0F0008AD0F00087A
:100040005F0100085F0100085F0100085F01000810
:100050005F0100085F0100085F0100085F01000800
:100060005F0100085F0100085F0100085F010008F0
:100070005F0100085F0100085F0100085F010008E0
:100080005F0100085F0100085F0100085F010008D0
:100090005F0100085F0100085F0100085F010008C0
:1000A0005F0100085F0100085F0100085F010008B0
:1000B0005F0100085F0100085F0100085F010008A0
:1000C0005F0100085F0100085F0100085F01000890
:1000D0005F0100084D1100085F0100085F01000882
:1000E0005F0100085F0100085F0100085F01000870
:1000F0005F0100085F0100085F0100085F01000860
:100100005F0100085F0100085F0100085F0100084F
:100110005F0100085F0100085F0100085F0100083F
:100120005F0100085F0100085F0100085F0100082F
:10013000DFF80CD001F004FF004800472D0F000845
:10014000604900200648804706480047FEE7FEE772
:10015000FEE7FEE7FEE7FEE7FEE7FEE7FEE7FEE777
:1001600047020008310100080CB500200190009002
:100170006C48006840F480306A49086000BF6948F4
:10018000006800F4003000900198401C0190009835
:1001900018B90198B0F5A06FF1D16248006800F479
:1001A000003010B10120009001E000200090009884
:1001B000012843D15C48006840F010005A490860AB
:1001C0000846006820F0030008600846006840F018
:1001D0000200086053484068524948600846406839
:1001E00048600846406840F48060486008464068BF
:1001F00020F47C1048600846406840F4E8104860ED
:100200000846006840F08070086000BF45480068FC
:1002100000F000700028F9D04248406820F0030048
:10022000404948600846406840F00200486000BF0E
:100230003C48406800F00C000828F9D10CBD10B50E
:10024000FFF792FF10BD10B53648006840F001007E
:1002500034490860084640683449084031494860DC
:1002600008460068324908402E4908600846006880
:1002700020F4802008600846406820F4FE004860B2
:100280004FF41F008860FFF7DAFF4FF00060294944
:10029000086010BD10B5002100200022214B5B68D2
:1002A00003F00C0121B1042906D0082928D107E068
:1002B000214B224C236027E01F4B204C236023E07E
:1002C000184B5B6803F47010164B5B6803F48032C4
:1002D000022303EB904022B9194B4343174C236090
:1002E0000DE0104B5B6803F4003323B1144B434320
:1002F000124C236003E0104B4343104C236003E097
:100300000D4B0E4C236000BF00BF064B5B68C3F370
:1003100003130C4CE15C094B1B68CB40074C23607A
:1003200010BD000000100240002002400000FFF855
:10033000FFFFF6FE08ED00E000127A00000000204A
:1003400000093D000400002031490143314A116099
:10035000704770B5002100230F22C47804B32D4CE0
:10036000246804F4E064C4F5E064210AC1F10403E4
:10037000CA40447804FA03F1847814402143090107
:10038000254C0678A155047804F01F050124AC40E3
:1003900005786D11AD0005F1E025C5F8004109E0D3
:1003A000047804F01F050124AC401C4D067876113A
:1003B00045F8264070BD1A4A0A400243154B1B1FE0
:1003C0001A60704739B1134A121D12680243114B6B
:1003D0001B1D1A6006E00F4A121D126882430D4B66
:1003E0001B1D1A607047042808D14FF0E0210969ED
:1003F00041F004014FF0E022116107E04FF0E021ED
:10040000096921F004014FF0E022116170470000FA
:100410000000FA050CED00E000E400E080E100E0FF
:1004200080FFFF1F10B50446CC48844208D101214B
:10043000042000F02DFB0021042000F029FB46E001
:10044000C748844208D10121082000F021FB002187
:10045000082000F01DFB3AE0C248844208D1012187
:10046000102000F015FB0021102000F011FB2EE001
:10047000BD48844208D10121202000F009FB002161
:10048000202000F005FB22E0B848844208D1012179
:10049000402000F0FDFA0021402000F0F9FA16E0BB
:1004A000B348844208D10121802000F0F1FA0021F4
:1004B000802000F0EDFA0AE0AE48844207D1012125
:1004C000801500F0E5FA0021A01500F0E1FA10BD5A
:1004D00010B50121084600F0DBFA0021012000F0F0
:1004E000D7FA10BD2DE9F041024600250026002074
:1004F00000230024002791F803C00CF00F0591F8A9
:1005000003C00CF0100CBCF1000F03D091F802C036
:100510004CEA050591F800C0BCF1000F31D0146819
:1005200000202BE04FF0010C0CFA00F3B1F800C0F2
:100530000CEA03069E4220D183004FF00F0C0CFA08
:1005400003F7BC4305FA03FC4CEA040491F803C02A
:10055000BCF1280F06D14FF0010C0CFA00FCC2F8D8
:1005600014C00AE091F803C0BCF1480F05D14FF068
:10057000010C0CFA00FCC2F810C0401C0828D1D3B2
:100580001460B1F800C0BCF1FF0F34DD54680020E6
:100590002EE000F1080C4FF0010808FA0CF3B1F856
:1005A00000C00CEA03069E4221D183004FF00F0CDD
:1005B0000CFA03F7BC4305FA03FC4CEA040491F877
:1005C00003C0BCF1280F05D100F1080C08FA0CF8A3
:1005D000C2F8148091F803C0BCF1480F07D100F1B4
:1005E000080C4FF0010808FA0CF8C2F81080401C03
:1005F0000828CED35460BDE8F0814FF6FF7101802A
:10060000022181700421C170704702460020936866
:100610000B400BB1012000E00020704701468868C4
:1006200080B2704702460020D3680B400BB1012016
:1006300000E0002070470146C86880B27047016141
:100640007047416170470AB1016100E04161704744
:10065000C16070474FF480320A43826181618261D8
:1006600082698269704702460020434B18684FF642
:100670008073184040EA021008433F4B18607047EF
:100680003E49C8617047F0B50A46002300240021A6
:10069000002500F00046B6F1004F02D1364EF16958
:1006A00001E0354E7168C0F3034583B200F4401693
:1006B000B6F5401F08D121F070612F4E766826F004
:1006C00070662D4F7E6012E000F48016B6F5801F34
:1006D00006D1032606FA05F4A14341F0706106E055
:1006E000460D360103FA06F6B14341F0706122B1BE
:1006F000460D360103FA06F6314300F00046B6F126
:10070000004F02D11C4EF16101E01B4E7160F0BD43
:1007100030B500228B071C0F0F2303FA04F2164B8F
:1007200008338C1053F824309343134C08348D1045
:1007300044F8253023468C1053F824308C07240FBE
:1007400000FA04F423430C4C08348D1044F825308F
:1007500030BD0A49DC3108607047000000080140E4
:10076000000C01400010014000140140001801403D
:10077000001C014000200140000001400000204218
:10078000DF48006840F00100DD4908600846406825
:10079000DC490840DA49486008460068DA49084000
:1007A000D74908600846006820F4802008600846A1
:1007B000406820F4FE0048604FF41F0088607047D6
:1007C000CF49096821F48031CD4A1160114609688A
:1007D00021F480211160B0F5803F03D0B0F5802F67
:1007E0000ED106E0C649096841F48031C44A11605F
:1007F00007E0C349096841F4A021C14A116000E043
:1008000000BF00BF704710B5014600220023002042
:100810004A11012A02D1BA4C236806E0022A02D109
:10082000B74C236A01E0B64C636A01F01F02012451
:1008300094401C400CB1012000E0002010BD38B5F0
:10084000002000900024002500BF3120FFF7DBFFCF
:1008500005460098401C00900098B0F5A06F01D0AC
:10086000002DF2D03120FFF7CEFF08B1012400E0C7
:100870000024204638BD01460020A14A106820F01F
:10088000F80040EAC10010607047A0490860704756
:10089000024600209A4B586820F47C1042EA01037B
:1008A0001843974B5860704798490866704701464F
:1008B0000020934A506820F00300084350607047BE
:1008C0008F48406800F00C007047014600208C4AB9
:1008D000506820F0F0000843506070470146002047
:1008E000874A506820F4E060084350607047014632
:1008F0000020834A506820F4605040EAC1005060F4
:10090000704729B17E4A527A02437D4B5A7204E005
:100910007B4A527A82437A4B5A7270477B49D8316C
:100920000860704701460020754A506820F4404036
:100930000843506070470021714A20321170704A9C
:1009400082F82010012802D004280AD104E00121F5
:100950006B4A2032117005E00521694A203211707E
:1009600000E000BF00BF70476949086070476449F4
:10097000096A0143624A1162704765494439086057
:10098000704730B500210022002400235C4D6D68C3
:1009900005F00C0121B1042905D0082923D105E077
:1009A0005C4D056022E05B4D05601FE0544D6D68B5
:1009B00005F47012524D6D6805F48034022505EB84
:1009C00092421CB9544D554305600BE04C4D6D6887
:1009D00005F400351DB1504D5543056002E04D4D05
:1009E0005543056002E04B4D056000BF00BF444D1C
:1009F0006D6805F0F0010909484D6B5C0568DD4044
:100A000045603F4D6D6805F4E061090A434D6B5C3C
:100A10004568DD4085603A4D6D6805F46051C90A4E
:100A20003E4D6B5C4568DD40C560354D6D6805F435
:100A30004041890B3A4D6B5CC568B5FBF3F5056128
:100A400030BD29B12E4A526902432D4B5A6104E050
:100A50002B4A526982432A4B5A61704729B1284A6E
:100A600092690243264B9A6104E0254A92698243C7
:100A7000234B9A61704729B1214AD2690243204B26
:100A8000DA6104E01E4AD26982431D4BDA61704785
:100A900029B11B4AD2680243194BDA6004E0184AB4
:100AA000D2688243164BDA60704729B1144A126942
:100AB0000243134B1A6104E0114A12698243104B3E
:100AC0001A61704712494039086070470F49C8647D
:100AD00070470B49C87170470948406A40F0807000
:100AE00007494862704701460020054A92680A405B
:100AF0000AB1012000E00020704701498872704768
:100B0000001002400000FFF8FFFFF6FE0000424226
:100B10008004424200127A0000093D0014000020C7
:100B20002400002010B50446FB48844209D101216D
:100B30008803FFF7ADFF00214FF48040FFF7A8FFC7
:100B400032E0F648844209D101214804FFF7ADFFA5
:100B500000214FF40030FFF7A8FF25E0F048844261
:100B600009D101218804FFF7A0FF00214FF4802064
:100B7000FFF79BFF18E0EB48844209D10121C8042C
:100B8000FFF793FF00214FF40020FFF78EFF0BE0EB
:100B9000E548844208D101210805FFF786FF0021BE
:100BA0004FF48010FFF781FF10BD2DE9F04786B0AC
:100BB00005460E460024A24600BFA1460027B08984
:100BC00000B100BF2F462C8A4CF6FF700440F0881D
:100BD00004432C82AC894EF6F3100440B08831896E
:100BE0000843718908430443AC81AC8A4FF6FF4047
:100BF0000440B0890443AC8201A8FFF7C2FEC64896
:100C0000874202D1DDF810A001E0DDF80CA0A88930
:100C100000F4004040B10AEBCA0000EB0A10316852
:100C20004900B0FBF1F807E00AEBCA0000EB0A103C
:100C300031688900B0FBF1F86420B8FBF0F00401E2
:100C40002009642101FB1089A88900F4004040B10B
:100C5000322000EBC900B0FBF1F000F007000443C4
:100C600008E0322000EB09106421B0FBF1F000F045
:100C70000F0004432C8106B0BDE8F0874FF41651F5
:100C8000016000218180C18001810C21418100210E
:100C90008181704710B502460020108A4FF2FF0391
:100CA00018400B884C8823438C882343CC882343EB
:100CB0001843108210BD0021018041808180C180D5
:100CC000704721B1828942F40052828104E0828916
:100CD0004DF6FF731A4082817047F0B50346002439
:100CE00000260025002040F66A17B94200D100BF57
:100CF0001846C1F3421401F01F06012707FA06F552
:100D0000012C01D10C3004E0022C01D1103000E0A4
:100D100014301AB107682F43076002E00768AF4339
:100D20000760F0BD1AB1838A0B43838202E0838A95
:100D30008B4383827047028A4FF6F0731A40028217
:100D4000028A0A430282704782894FF2FF731A4077
:100D5000828182890A438281704721B1828942F06F
:100D60000202828104E082894FF6FD731A4082817B
:100D70007047028A4FF6DF731A400282028A0A43E2
:100D80000282704721B1028A42F48042028204E06A
:100D9000028A4BF6FF731A4002827047C1F30802C1
:100DA0008280704701468888C0F3080070478189B7
:100DB00041F0010181817047028BD2B20283028B24
:100DC00042EA012202837047028B02F47F420283CF
:100DD000028B0A430283704721B1828A42F02002CB
:100DE000828204E0828A4FF6DF731A408282704763
:100DF00021B1828A42F01002828204E0828A4FF698
:100E0000EF731A408282704721B1828A42F0080251
:100E1000828204E0828A4FF6F7731A40828270471A
:100E200021B1828942F40042828103E08289C2F3C7
:100E30000E028281704721B1828A42F4006282826E
:100E400004E0828A4FF2FF731A4082827047828ADE
:100E50004FF6FB731A408282828A0A43828270476D
:100E600021B1828A42F00202828204E0828A4FF635
:100E7000FD731A408282704702460020B1F5007F60
:100E800000D100BF13880B400BB1012000E000200F
:100E9000704701F40072B2F5007F00D100BFCA4371
:100EA0000280704770B50246002400230025002010
:100EB00040F66A16B14200D100BFC1F3421501F0FD
:100EC0001F03012606FA03F3012D02D19689334050
:100ED00006E0022D02D1168A334001E0968A3340A3
:100EE0000C12012606FA04F41688344013B10CB132
:100EF000012000E0002070BD10B50022002340F664
:100F00006A14A14200D100BF0A1201249440A3B286
:100F1000DC43048010BD0000003801400044004064
:100F200000480040004C00400050004086B000F0F7
:100F300052F800F07DF900F064FE00F09FFD00F033
:100F40006FFC00F0EFFB102001F0D4F90446002004
:100F500001E02054401C1028FBDB019410208DF888
:100F6000080005208DF8100005218DF811108DF86E
:100F7000121010208DF8160005480068416801A87D
:100F8000884703E000F097FD00F063FCFAE70000FB
:100F900048000020704700BFFEE700BFFEE700BF2B
:100FA000FEE700BFFEE770477047704770470000DC
:100FB00008B54FF4A060FFF7C7F925208DF80000B1
:100FC00001208DF801008DF802008DF803006846BD
:100FD000FFF7BFF908BD00B585B001210420FFF778
:100FE0003DFD01218803FFF739FD4FF40070ADF896
:100FF000100018208DF8130003208DF8120004A9AA
:101000008548FFF76FFA4FF48060ADF810000420B8
:101010008DF8130004A98048FFF764FA4FF4E1301B
:1010200000900020ADF80400ADF80600ADF808000F
:10103000ADF80C000C20ADF80A0069467748FFF7C0
:10104000B4FDFFF7B5FF012240F225517348FFF7C9
:1010500044FE01217148FFF734FE05B000BD70B5B4
:1010600004460D4629462046FFF798FE00BF802122
:101070002046FFF701FF0028F9D070BD2DE9F041AF
:1010800007460D461646002405E0295D3846FFF761
:10109000E6FF601CC4B2B442F7DB00BF4021384613
:1010A000FFF7EAFE0028F9D0BDE8F08170B50646EA
:1010B0000C46002500BF615D3046FFF7D0FF6D1C78
:1010C000605D0028F7D100BF40213046FFF7D4FE15
:1010D0000028F9D070BD2DE9F04105460C46260ADE
:1010E000E7B231462846FFF759FE00BF8021284667
:1010F000FFF7C2FE0028F9D039462846FFF74EFE1A
:1011000000BF80212846FFF7B7FE0028F9D0BDE8D0
:10111000F08170B504460D46E1B24048FFF73EFE4F
:1011200000BF80213D48FFF7A7FE0028F9D02046E8
:1011300070BD10B5044600BF20213848FFF79CFE63
:101140000028F9D03548FFF72DFE10BD10B540F24C
:1011500025513248FFF7A6FE00285AD02F48FFF746
:1011600021FEC4B22E48007800283FD12D480078D7
:1011700001280CD1042C0AD01B2C08D02A48006866
:10118000047029480068401C2749086042E025484F
:101190000078012810D1042C0ED123480068047077
:1011A00021480068401C2049086001201F49087040
:1011B00000201C49087018E01C48007868B9012C10
:1011C0000BD119480068047017480068401C164984
:1011D000086001201349087007E0124800780128D0
:1011E00003D11B2C01D10E49087013E00C48007884
:1011F00001280ED10B48007801280AD10A4800685E
:10120000047009480068401C074908600020044930
:10121000087000BF10BD0000000801400038014008
:101220002D0000202E000020280000202C0000208F
:1012300000204E4908700220487015208870002058
:101240004B4908700120487014208870704770B5B1
:1012500004460D4604F47F4001124648FFF7FFFEA6
:10126000E1B24448FFF7FBFE29464248FFF7F7FE8C
:1012700070BD70B504460E46154621463D48FFF741
:10128000EEFE31463B48FFF7EAFE29463948FFF7B4
:10129000E6FE70BD70B505460C4617E020780128C3
:1012A00004D0042803D01B2807D101E000BF00BFF1
:1012B0001B213048FFF7D3FE00BF21782D48FFF7F0
:1012C000CEFE00BF00BF641C681EC5B2002DE5DC69
:1012D00070BD10B50446012C04D0042C03D01B2C87
:1012E00007D101E000BF00BF1B212248FFF7B7FE76
:1012F00000BF21461F48FFF7B2FE00BF00BF10BD70
:1013000010B504460CB9002010BD204600F077FD52
:101310002072174B9A7859781878FFF7AAFF0121A5
:101320001448FFF79CFEA07CFFF7D3FF607AFFF71D
:10133000D0FFA07AFFF7CDFFE07AFFF7CAFF207B4E
:10134000FFF7C7FF607BFFF7C4FFA07BFFF7C1FF7C
:1013500020792168FFF79EFF207AFFF7BAFF04216A
:101360000448FFF77CFE0120CEE700002F0000209C
:10137000320000200038014008B10168C1607047A8
:101380000146C8688068C8607047014641B1C868B6
:1013900030B1C86880684A68904201D00120704727
:1013A0000020FCE710B50246936803EBD374B1EB61
:1013B000640F06DC106801E08068491E0029FBDA32
:1013C00008E0506893685B1A591E01E04068491EA6
:1013D0000029FBDA10BD2DE9F04105460E4625B186
:1013E000002E02DBA868B04202DC0020BDE8F081DC
:1013F00031462846FFF7D6FF04462768D4E9011096
:101400008860D4E901014860A868401EA8602046B1
:1014100000F048FF3846E9E770B505460C2000F0BB
:1014200069FF044625600020A0606060204670BD12
:1014300070B504460E463046FFF7EEFF054660687D
:10144000406868606068A86060684068856060683F
:101450004560A068401CA06070BD70B504460E4693
:101460003046FFF7D9FF054620688068A8602068ED
:10147000686020688068456020688560A068401CBE
:10148000A06070BD2DE9F04104460D46904624B1A0
:10149000002D02DBA068A84202DA0020BDE8F0813E
:1014A00025B941462046FFF7D8FF1AE0A068A842B8
:1014B00004D141462046FFF7BBFF12E04046FFF74C
:1014C000ABFF064629462046FFF76CFF07467868C3
:1014D0007060B760786886607E60A068401CA0601D
:1014E00000BF0120DAE770B504460CB1A06808B966
:1014F000002070BD60684568686861684860606821
:10150000696888602E68284600F0CCFEA068401EFE
:10151000A0603046EDE770B504460CB1A06808B98C
:10152000002070BD20688568A868216888602068F0
:10153000A96848602E68284600F0B4FEA068401EE6
:10154000A0603046EDE770B505460C46A068B8B11E
:101550006068A8B160688068A04211D1A068406846
:10156000A0420DD1D4E901014860D4E9011088609E
:10157000204600F097FEA868401EA860012070BDBC
:101580000020FCE701460B689A68002001E0401C3F
:1015900092689368002BFAD1704730B50446204614
:1015A000FFF7F0FF0546A81C054630BD02460B4676
:1015B00010680068984201D1002070471068816867
:1015C00004E00868984201D10846F6E788680028D8
:1015D000F7D100BFF1E770B505460E4628680068F0
:1015E000B04201D1002070BD31462846FFF7DEFF32
:1015F000044674B1D4E901108860D4E9010148605F
:10160000204600F04FFE0024A868401EA86001207C
:10161000E9E70020E7E770B505464C2000F06AFED8
:1016200004460C2000F066FE20600C2000F062FEF4
:10163000606020680560606805600020216848607F
:1016400061688860D4E900108860D4E900014860CE
:101650000020A060AFF28100E062AFF20120E06103
:10166000AFF2DF006062AFF2BB002063AFF23F2059
:101670002062AFF2D900A062AFF23510A064AFF2E1
:1016800069106063AFF2A110A063AFF20720E063BE
:10169000AFF2BD202064AFF2F32060642068E06008
:1016A000AFF219312161AFF227316161AFF2373109
:1016B000A161204670BD70B50446256805E0A868A4
:1016C0002060284600F0EEFD2568002DF7D1204669
:1016D00000F0E8FD70BD000030B50146B1F1807F3B
:1016E00001D3012030BD21F07F40401E4FF0E022A9
:1016F000506150170F22002807DA13071D0E3E4BCA
:1017000000F00F04241F1D5503E013071C0E3B4B74
:101710001C5400BF00204FF0E022906107201061B0
:101720000020DFE710B5364800683649B0FBF1F419
:101730002046FFF7D1FF08B100BFFEE710BD01B59D
:101740003149009808604FF0E020006940F0010046
:101750004FF0E021086100BF2B4800680028FBD152
:1017600008BD2948006820B127480068401E264966
:101770000860704731B5224800682449B0FBF1F594
:101780002846FFF7A9FF002408E000BF4FF0E02043
:10179000006900F480300028F8D0641C009884426E
:1017A000F3D34FF0E020006920F001004FF0E0217A
:1017B000086138BD31B5124800684FF47A71B0FB4A
:1017C000F1F52846FFF788FF002408E000BF4FF03E
:1017D000E020006900F480300028F8D0641C0098F4
:1017E0008442F3D34FF0E020006920F001004FF075
:1017F000E021086138BD000018ED00E000E400E0E1
:1018000000000020A08601003800002040420F00A8
:1018100010B55B480068416B59480068884710BDA7
:1018200010B558A0FFF7F7FE554908600C2000F0EE
:1018300061FD56490860002009680870504800683A
:10184000524909684860AFF237005049096888601A
:1018500010BDF8B54E48007800287DD04FF4807157
:101860004C4800F030FB4C4800684C49451A08468B
:10187000494908602A460146464800F00BFB2946C4
:10188000464800F020FB142000F034FD0446EAB284
:101890004049204600F054FA06460EB1701C30B99B
:1018A000204600F0FFFC002039490870F8BD34489C
:1018B00000688068102805DB31480068416B3048BB
:1018C00000688847012E2ED1217A35A000F06AFBEE
:1018D00021793BA000F066FB207902280EDC2279FA
:1018E000521E2368985C3E4A1268916888472068B7
:1018F00000F0D8FC204600F0D5FC3BE02048006812
:101900002146026A1E4800689047217AB4F809000F
:10191000ADF80000E07A8DF8020032480068826875
:101920000098904726E0022E24D1A07CE8B92068D8
:1019300000F0B8FC022000F0DDFC206002202071E5
:10194000FF2021680870207A21684870B4F80900E7
:10195000A081E07AA07300E010E023480188A4F899
:1019600009108078E0721020A0741E480068416859
:101970002046884700200649087000BF00BF95E751
:101980004000002072656376000000003C000020EB
:101990002C000020600800202800002060000020AB
:1019A0004C4F524120BDD3CAD5B5BDCAFDBEDDB036
:1019B000FC20637263CEAA2025780D0A0000000087
:1019C0004C4F524120BDD3CAD5B5BDCAFDBEDDB016
:1019D000FC206C656ECEAA2025780D0A0000000060
:1019E0004C000020480000202F00002010B50446C5
:1019F000494800688068102805DB47480068416B4B
:101A0000454800688847444800682146026A4248C1
:101A10000068904710BD33B581B00D463F4801883E
:101A2000ADF8001080788DF80200142000F062FC00
:101A30000446012000F05EFC206020680570012053
:101A40002071BDF80400A0819DF80600A073BDF8C8
:101A50000000A4F80F009DF802006074304801886F
:101A6000A4F809108078E072204600F0C8F92072CE
:101A70001020A0742046FFF7B9FF3EBD10B529A085
:101A8000FFF7C9FD244908600C2000F033FC27490A
:101A900008600846006868B11F4800680968086067
:101AA000AFF2B700214909684860AFF295001F49BD
:101AB0000968886010BD10B5174800688068002864
:101AC00029D015480068416B1348006888470446D0
:101AD0002046FFF715FC00281CD0217A14A000F046
:101AE00061FA217919A000F05DFA2079022805DD5C
:101AF0001D4800684168204688470BE0207901288E
:101B000002D02079022805D1206800F0CBFB2046C6
:101B100000F0C8FB00BF10BD4400002032000020D0
:101B20002F00002073656E64000000004800002054
:101B30004C4F524120B7A2CBCDCAFDBEDDB0FC2038
:101B4000637263CEAA2025780D0A00004C4F5241E3
:101B500020B7A2CBCDCAFDBEDDB0FC206C656ECE39
:101B6000AA2025780D0A00004C0000207FB506460B
:101B700031480068806810B9002004B070BD0024AE
:101B800000252D4803680C330FCB8DE80F002A4841
:101B900003990068884717E027480299006888473A
:101BA00005462C68207AB0420ED1234800682946A9
:101BB000826C214800689047206800F073FB204643
:101BC00000F070FB0120D8E71B48019900688847A6
:101BD0000028E1D100BFD0E710B5044616480068E0
:101BE0008068102805DB14480068416B12480068C3
:101BF0008847114800682146026A0F4800689047EC
:101C000010BD10B50DA0FFF706FD0B4908600C20B4
:101C100000F070FB0A49086007480068096808601E
:101C2000AFF24B00064909684860AFF2BF000449B3
:101C30000968886010BD00005000002065636300E3
:101C40004C00002010B50246002306E010785840F2
:101C50008E4C235C521C481EC1B20029F6DC0BB925
:101C6000012010BD0020FCE710B5034606E01878FF
:101C70005040864C225C5B1C481EC1B20029F6DC39
:101C8000104610BD10B50246002006E01378434010
:101C90007E4CE05C521C4B1ED9B20029F6DC10BD14
:101CA0001FB5142000F026FB0446DDE90001C4E95D
:101CB0000001BDF80800A4F809009DF80A00E072D0
:101CC000BDF80C00A0819DF80E00A0731020A07438
:101CD000204604B010BD13B5142000F00BFB0446E1
:101CE000BDF80000A4F809009DF80200E072BDF8FC
:101CF0000400A0819DF80600A0731020A074204667
:101D00001CBD03465818421E07E01078042801D174
:101D100010467047521E481EC1B20029F5DC002053
:101D2000F7E703461A4607E01078012801D110466C
:101D30007047521C481EC1B20029F5DC0020F7E7AD
:101D40002DE9F04704460D469046A94641462846EF
:101D5000FFF7E7FF050002D1401EBDE8F087A5EBC5
:101D60000900A8EB000000F0FF0841462846FFF7F5
:101D7000C8FF070001D1401EEFE717F8010C2072E1
:101D8000781B801EC1B2A81CFFF75CFF10B94FF092
:101D9000FF30E2E76878401EA074A8786072E978A6
:101DA000A1722979E17268792073A9796173E9795F
:101DB000A173781B0938C6B22671002E0ADD3046A1
:101DC00000F098FA2060324605F10801206800F022
:101DD00061F801E00020C0E7207B2D4909788842A6
:101DE0000BD1607B2A494978884206D1A07B2849DB
:101DF0008978884201D10120AFE70220ADE730B5F4
:101E0000044600252A46012104F10900FFF72CFFB2
:101E100005462A46012104F10A00FFF725FF054681
:101E20002A46012104F10B00FFF71EFF05462A4652
:101E3000012104F10C00FFF717FF05462A46012196
:101E400004F10D00FFF710FF05462A46012104F1B9
:101E50000E00FFF709FF054621792A462068FFF7A3
:101E600003FF0546284630BD10B5044614B1204690
:101E700000F018FA10BD10B504462CB12068FFF729
:101E8000F3FF204600F00EFA10BD000060230008AA
:101E90002F00002040EA01039B0703D009E008C996
:101EA000121F08C0042AFAD203E011F8013B00F81F
:101EB000013B521EF9D27047D2B201E000F8012B6B
:101EC000491EFBD270470022F6E710B513460A46BA
:101ED00004461946FFF7F0FF204610BD2DE9F05FDC
:101EE0000546002092469B46884606468146402489
:101EF0001BE0284641464746224600F042F853463A
:101F00005A46C01A914110D311461846224600F095
:101F100029F82D1A67EB01084F46224601200021BF
:101F200000F020F817EB00094E41201EA4F1010437
:101F3000DFDC484631462A464346BDE8F09F0000B4
:101F4000064C074D06E0E06840F0010394E8070006
:101F500098471034AC42F6D3FEF7EEF86024000840
:101F600080240008202A04DB203A00FA02F1002035
:101F700070479140C2F1200320FA03F319439040C7
:101F80007047202A04DB203A21FA02F00021704732
:101F900021FA02F3D040C2F12002914008431946D1
:101FA000704700000FB4054B10B503A9044A02980E
:101FB00000F018F810BC5DF814FB000013110008C5
:101FC0005400002002E008C8121F08C1002AFAD1FC
:101FD00070477047002001E001C1121F002AFBD1A9
:101FE000704700002DE9FF4F8DB09B460F46044619
:101FF000002606E025280BD05A460F999047641C0E
:10200000761C20780028F5D111B03046BDE8F08F5D
:102010000025A8460122984900E0054314F8013F35
:10202000203B02FA03F00842F7D120782E2817D17E
:1020300014F8010F45F004052A280ED06FF02F0286
:102040002078A0F1300109290AD808EB880102EBB9
:10205000410100EB0108641CF2E757F8048B641C93
:1020600020786C280DD004DC4C2812D06A2811D1BD
:1020700004E074280DD07A280CD10AE045F400154C
:1020800007E0617845F48015814202D1641C05F5B2
:102090008015641C2278692A45D008DC002AB3D058
:1020A000582A69D0632A10D0642A08D13BE0702AEC
:1020B00067D0732A13D0752A5CD0782A5CD010467A
:1020C0005A460F999047761CD3E017F8040B8DF809
:1020D000000000208DF80100E946012003E057F8D8
:1020E000049B4FF0FF3069074FF0000501D40AE070
:1020F0006D1C45450DDA8542FADB19F805100029FB
:10210000F6D106E06D1C8542FCDB19F805100029AC
:10211000F8D12E4404E019F8010B5A460F99904764
:102120006D1EF8D2A5E00A200021CDE90801C5F313
:10213000025002280DD001CFC117031E71F1000318
:102140000DDA4FF0000CD0EB0C006CEB01012D23ED
:1021500008E0FF1D27F00707F7E80201EDE72B0570
:1021600004D52B238DF8283001233BE0EB0739D031
:102170002023F7E70A2000E010200021CDE9080124
:1021800007E01020002145F00405CDE908014FF0DB
:102190000808C5F3025002280FD001CF00214FF0EC
:1021A000000A2B071FD5702A0DD0DDE908C38CF07B
:1021B000100C5CEA030C0CD015E0FF1D27F007079C
:1021C000F7E80201EBE740228DF828204FF0010AE2
:1021D0000BE050EA010306D030238DF828308DF84B
:1021E000292002239A46582A04D024A20DF120095E
:1021F0000B9209E026A2F9E7DDE90823FFF76EFE5E
:102200000B9B9B5C09F8013D50EA0102F4D1ADEB58
:10221000090020300890680701D44FF001080899A0
:10222000884502DDA8EB010000E000208046002583
:1022300006E00AA85A46405D0F9990476D1C761C2F
:102240005545F6DB04E030205A460F999047761C3E
:10225000B8F10001A8F10108F5DC05E019F8010B5F
:102260005A460F999047761C0899481E08900029F5
:10227000F4DC641CC5E6000009280100303132336B
:1022800034353637383961626364656600000000B2
:10229000303132333435363738394142434445469C
:1022A0000000000010B5002821D0114B0022001FB3
:1022B000196803E0814203D80A4649680029F9D128
:1022C00052B11368841A9C4204D10068184410600B
:1022D000104602E0506000E0186039B102680B1A45
:1022E000934203D10B681A4402604968416010BDF3
:1022F00058000020F0B50B30154D20F007010024E8
:10230000144A0FE003688B420BD38B4205D95E1A47
:1023100043184768C3E9006700E04368136002C0E0
:1023200004E0021D10680028ECD12046002802D1EC
:10233000286808B10020F0BD064A07481060074A27
:10234000121A22F00702C0E9002401202860D7E712
:102350005C00002058000020640900206029002053
:10236000005EBCE2613FDD83C29C7E20A3FD1F4175
:102370009DC3217FFCA2401E5F01E3BD3E6082DC65
:10238000237D9FC1421CFEA0E1BF5D0380DE3C6255
:10239000BEE0025CDF81633D7C22C09E1D43A1FF45
:1023A0004618FAA427799BC584DA3866E5BB590735
:1023B000DB856739BAE406581947A5FB7826C49A25
:1023C000653BD987045AB8E6A7F91B45C6987A2415
:1023D000F8A6441A99C7257B3A6486D85B05E7B905
:1023E0008CD2306EEDB3510F4E10F2AC2F7193CDF5
:1023F000114FADF3702ECC92D38D6F31B2EC0E50E5
:10240000AFF1134DCE90722C6D33D18F0C52B0EED4
:10241000326C8ED0530DEFB1F0AE4C1291CF2D73C4
:10242000CA947628ABF517490856B4EA6937D58BB4
:102430005709EBB536688AD495CB2977F4AA4816A4
:10244000E9B7550B88D6346A2B7597C94A14F6A894
:10245000742AC896154BA9F7B6E80A54D7896B3584
:10246000802400080000002060000000C41F000855
:10247000E02400086000002000490000D41F00088C
:1024800000A24A0400000000000000000102030452
:10249000060708090000000001020304010203040A
:1024A000060708090204060860000020000000007A
:1024B000000000000000000000000000000000001C
:1024C000000000000000000000000000000000000C
:1024D00000000000000000000000000000000000FC
:0400000508000131BD
:00000001FF
